:10000000FC1F0020E9060000D9060000DD06000004
:1000100000000000000000000000000000000000E0
:10002000000000000000000000000000E1060000E9
:100030000000000000000000E50600008508000048
:1000400010B5064C2378002B07D1054B002B02D0AE
:10005000044800E000BF0123237010BD5C000020B5
:1000600000000000701D000008B5084B002B03D0F5
:100070000748084900E000BF07480368002B03D089
:10008000064B002B00D0984708BDC046000000007A
:10009000701D0000600000205800002000000000DB
:1000A0001A4B1B78002B0AD1194B1A781949097879
:1000B0008A18D2B21A7080229202174BDA61134B5F
:1000C0001A780132D2B21A70114B1B78DBB2F02BC6
:1000D00004D80F4B1B78DBB2092B0AD80D4B1A78CA
:1000E0005242D2B21A700A4A11781B785B18DBB2FE
:1000F0001370064B1A78064B1B78D2B29A4203D182
:1001000080229202044BDA617047C04678000020DA
:1001100001000020000000200044004110B501242F
:10012000C3695B081C42FBD103680224A34303603C
:100130000124C3691C42FCD10468012323430360EA
:10014000012403681C42FCD10124C3691C42FCD178
:10015000C3695B081C42F8D10A4B1A4302600122B2
:10016000C3699B081A42FBD1C0239B024360818173
:100170000122C3695B081A42FBD1026802231343C0
:10018000036010BD040000400122037E1A42FCD02F
:10019000018570470122037E9B081A42FBD0438BE6
:1001A000DA0705D4438B9A0702D4438B5A0702D54A
:1001B0000122024B1A70008DC0B2704779000020F6
:1001C000F8B5041C03689A8B11072FD5998B082268
:1001D0000A439A8380229A72112080214900585440
:1001E00040200621FF315854822149005A54144AB4
:1001F0005768144E3740C025AD052F4357605769E7
:100200003E4035435561104D1560104D15615668DF
:100210000F4D35408026B602354355605568AD0B0D
:10022000AD03556058540023237106E00822FF32C5
:100230009B5CDA0601D500F067FB2079F8BDC0466B
:1002400098010020FFFFFF8F980000201801002078
:10025000FF3F00F00160002303714371034B836093
:100260000A78022313430B707047C046C101000097
:1002700010B5394BD96920220A43DA61374B58222D
:10028000995C0120014399543C22995C0F24A143BD
:1002900099549C5C06212143995459215C5C20436C
:1002A0005854985C0F2101409954985C6021014397
:1002B00099542B4A2B4B5A801A1C53785BB2002B53
:1002C000FBDB294B197801220A431A70191C012201
:1002D0008B781A42FCD1254B1B689B03DB0E1F2B2E
:1002E00000D10523204A9901108D214B03400B4377
:1002F00013851E4B1B685B02DB0E1F2B00D11D23D9
:10030000194A118D1F2081430B431385174B1A681F
:100310009201520F072A00D10322134B1103188DAB
:10032000144A02400A431A851A787F210A401A703B
:10033000197804220A431A700F4858621A890C214E
:100340008A431A811A8901218A431A810021802255
:1003500001F087FB10BDC04600040040004400418E
:1003600006400000000C0040005000412460800066
:100370003FF8FFFFFF8FFFFF98010020F0B54746D1
:1003800080B4041C171C1D1C1E1C5B01274AD318BB
:1003900010335B685B005B0F033301229A40BA4263
:1003A00008D86B01214AD3185869802212060243EB
:1003B0005A610BE02A1C531E9A4192011C4BD21821
:1003C0009046101C3A1C01F043FB41466B01174A52
:1003D000D218131C1161B904890C5269920B920353
:1003E0000A435A615969134A0A405A612B1C08335F
:1003F0005B01E318DA7903210A4002210A43D97923
:10040000032081430A43DA715979802252420A4318
:100410005A710836760103250221A319DB792B4096
:100420001942FAD0381C04BC9046F0BD9801002057
:1004300018010020FF3F00F038B5041C151C1F4BAD
:100440001B78002B13D11E4B1E4A1A645A6C920B58
:1004500092035A64586C1C4A02405A64A2235B00FF
:10046000E05C40220243E2540122144B1A704823FC
:10047000FF33E35CDA071ED5114B5B6C9B049B0CCE
:10048000AB4203D20E4B5D6CAD04AD0C081C0D49A4
:100490002A1C01F0DDFA4823FF33E25C03210A4005
:1004A00001210A43E15C032081430A43E254002214
:1004B000024B1A7000E00025281C38BD7A0000208D
:1004C00098010020D8000020FF3F00F0002908D04C
:1004D0000623FF33C25C30218A4320210A43C254E1
:1004E00007E00623FF33C25C30218A4310210A4310
:1004F000C254704710B5104B5A69920B92035A615F
:100500000823FF33C25C03210A4002210A43C15C75
:100510000324A1430A43C2540623FF33C15C802253
:1005200052420A43C2540824FF3403210222035DCD
:100530000B401A42FBD010BD9801002080235B4283
:100540001943C9B28172704770B50322A0235B00C2
:10055000C254134B5C6C134A1440C02189050C43F0
:100560005C6440244625FF3544550F4D1D643026FC
:1005700090256D0046555D6B1540294359638021D8
:1005800092256D004155094D1D63B0256D00445500
:100590005C6F22405A67B2235B00C15470BDC046F5
:1005A00098010020FFFFFF8FD80000205801002095
:1005B000404B5A681E218A4302210A435A603E4B2F
:1005C000996908220A439A613C4B3D4A9A82998A6A
:1005D00002220A439A82191C0222CB681A42FCD0DA
:1005E0000122384B1A7001211A780A4203D05A7836
:1005F00052B2002AF8DB0122324B9A601A1C53785F
:100600005BB2002BFBDB304A2E4B5A601A1C53782E
:100610005BB2002BFBDB8222D2012A4B5A801A1CD0
:1006200053785BB2002BFBDB244B9A8C80218A43EE
:100630009A84191C1022CB681A42FCD0234A1F4B03
:10064000DA62191C1022CB681A42FCD01B4B998C21
:100650001F4A0A439A84191C1022CB681A42FCD004
:10066000164B998C02220A439A841A1C802140203E
:10067000D3681942FCD0D3681842F9D00F49102230
:10068000CB681A42FCD000220E4B9A601A1C537899
:100690005BB2002BFBDB0F4A0A4B5A601A1C5378E3
:1006A0005BB2002BFBDB044B00221A725A729A7267
:1006B000DA7270470040004100040040000800402A
:1006C0000C060000000C004001050100B805FF7D8C
:1006D000040A0000000703000EBEFEE70DBEFEE7A1
:1006E00005BEFEE702BEFEE710B5184B184A9A4257
:1006F00016D0131C174A9A4212D0144B144A9A422D
:100700000ED2154B11480330C01A8008013080000A
:100710000023111C0F4AD458CC5004338342FAD121
:100720000E4B0F4A9A420DD00CD20E4B0B4903319F
:10073000C91A890801318900043BC918002204C381
:100740008B42FCD100F010F8FEE7C0465C000020B0
:1007500000000020741D000004000020A8030020F9
:100760005C0000206000002070B53823394AD35C5B
:10077000DA0703D50022384B1A6012E0364B1A68AC
:10078000364B9A4203D10022334B1A601DE0334AA4
:10079000314B1A60324B013B002BFCD100222E4B17
:1007A0001A60304B1A68531C0FD02F4B2F490B6027
:1007B000043BFF210B4208D182F30888FF229343B8
:1007C0002B4A9360274B5B681847FFF7F1FE62B630
:1007D00000F020FF00F05CF8041C264B80229202FF
:1007E0009A60082288215A5098215A508022120576
:1007F0009A609A61204B214A5A601D4A106A000291
:10080000000AC02109060143116200229A600722F2
:100810001A601B4E351C201CA2689047002802D08D
:100820000123174A13703378002B05D0002000F005
:100830005DFB00F0FBFBFCE72B78002BEBD100F01D
:100840005DFF0028E7D0012000F050FB00F0EEFB38
:10085000FCE7C04600040040FC1F00203581730700
:1008600048E80100002000000420000018020020D9
:1008700000ED00E00044004110E000E0E70300006C
:100880007B00002008B5FFF70BFC00F0A7FB08BDBC
:1008900010B5054C054B2360FFF7EAFC201C2168CE
:1008A000FFF7D8FC201C10BD1C02002000500041A6
:1008B00070B5C0B0061C0C1C151C081C01F0D9F842
:1008C000400002306A461070032353702378002BD7
:1008D0000ED06D08012D0DDD012201345100684656
:1008E0000B5201322378002B05D0AA42F5DB02E03F
:1008F000012200E001225200301C69460023FFF76C
:100900003DFD40B070BDC046F0B583B0061C046824
:100910000823FF33E15C10220A43E254C34B1A78E8
:10092000C34D2A705A78C3490A709878C24A108019
:100930001788D8780002384310801879BF4A108091
:10094000178858790002384310809879BC4A108083
:100950001088DB791B0203431380402282235B0053
:10096000E2540B782A781B021343B64A934200D113
:1009700022E126DC80225200934200D181E18022D4
:100980005200934209DC812B00D1CEE0822B00D1B2
:10099000D3E0802B00D015E2BFE0812252009342C9
:1009A00000D177E181225200934200DA6EE1C02249
:1009B0009200934200D1F6E0A34A934200D1F7E0BF
:1009C00000E290221201934200D195E090221201A0
:1009D00093420EDCD022D20093421DD08822120115
:1009E000934200D192E0A022D200934200D0E9E1EC
:1009F00078E0964A934200D1CAE104DC944A9342DB
:100A000000D13EE1DEE1934A934200D1C4E1924A33
:100A1000934200D1CFE1D5E1874B1B881B0A012B04
:100A20000ED13068864B1B889BB21222122B02D843
:100A3000834B1A8892B289490023FFF79FFCC5E1D6
:100A40007D4B1B881B0A022B0ED130687C4B1B8808
:100A50009BB24322432B02D8794B1A8892B2804929
:100A60000023FFF78BFCB1E1734B1B881B0A032BA0
:100A700033D1714B1A88FF231340012B18D0002B60
:100A800002D0022B1CD023E001A87649042200F0FA
:100A9000DFFF30686A4B1B889BB20422042B02D80C
:100AA000674B1A8892B201A90023FFF767FC8DE11A
:100AB000634B1A883068D2B26B49FFF7F9FE85E1C3
:100AC0005F4B1A883068D2B26849FFF7F1FE7DE1CA
:100AD000201C0121FFF7FAFC78E1201C0121FFF71F
:100AE000F5FC73E1201CFFF705FD534B198889B213
:100AF0003068FFF723FD69E14F4B1B883371201CE1
:100B0000FFF7F8FC201CFFF71FFD5FE1311C01C956
:100B100001220023FFF732FC58E1554900230B80E6
:100B200030680222FFF72AFC50E1514900230B8074
:100B300030680222FFF722FC48E100224C4B1A8069
:100B40003E4B1988502211404A4A117019880F22D1
:100B50000A401A801B889BB2032B1FD8454B1B7879
:100B6000002B0AD0354B1B8808335B01E418A279AF
:100B70009206D20F3E4B1A8009E0304B1B88083397
:100B80005B01E418A279D206D20F394B1A80306883
:100B9000374902220023FFF7F1FB17E1201C012156
:100BA000FFF794FC12E1201C0121FFF78FFC0DE1FF
:100BB000201CFFF79FFC09E1204B19887F229143FD
:100BC000C9B22C4A117019880F220A401A801A4B98
:100BD0001B889BB2002B4FD1184B1B889BB2002B5C
:100BE0004AD0164B1B889BB2032B45D8214B1B7850
:100BF000002B0BD0114B1B8808335B01E3185A798B
:100C000030218A4320210A435A710AE00B4B1B888A
:100C100008335B01E3185A7930218A4310210A43D3
:100C20005A71201CFFF766FCD0E0C04698000020F7
:100C3000860000207E00002080000020820000202E
:100C400084000020020300000103000021200000B6
:100C5000010B0000A121000021220000B81A0000B1
:100C600004000020981A00009C1A0000A81A000036
:100C70007C00002087000020201C0121FFF726FCBB
:100C8000A4E0201C0121FFF721FC9FE0201CFFF7BE
:100C900031FC9BE04E4B19887F229143C9B24D4AEB
:100CA000117019880F220A401A804B4B1B889BB287
:100CB000002B68D1464B1B889BB2002B63D0444B62
:100CC0001B889BB2032B5ED8424B1B78002B2BD08A
:100CD0003F4B1B8808335B01E3189B799A064ED57E
:100CE0003B4B1A8808325201A218117930208143F7
:100CF0002020014311711B8808335B01E318DB7965
:100D00005A063CD5324B1A8808325201A218D079C3
:100D10006021884340210143D1711B8808335B0166
:100D2000E31802221A712AE0294B1B8808335B0161
:100D3000E3189B79DA0622D5254B1A88083252012E
:100D4000A2181179302081431020014311711B88B2
:100D500008335B01E318DB799A0610D51C4B1A881F
:100D600008325201A218D079602188432021014322
:100D7000D1711B8808335B01E31801221A71201C12
:100D8000FFF7B8FB22E0201C0121FFF79FFB1DE0CD
:100D9000201CFFF7AFFB19E03068104B1B889BB29B
:100DA0000822082B02D80D4B1A8892B20C49002356
:100DB000FFF7E4FA0AE0084B1B887371201CFFF769
:100DC00099FB03E0201C0121FFF780FB03B0F0BD7D
:100DD0008200002087000020800000208400002086
:100DE0004800002000B583B00190054B186801A9A8
:100DF00001220123FFF7C2FA012003B000BDC04663
:100E00001C02002010B582B0054B18686C460734F0
:100E1000211C0122FFF710FB207802B010BDC04654
:100E20001C02002008B50748FFF7CAF9031C002080
:100E3000002B06D0034B1A684823FF33D05C0123F4
:100E4000184008BD1C02002010B5031C0C1C044AED
:100E50001068191C221C0123FFF790FA201C10BDFA
:100E60001C02002038B5051C0C1C0748FFF7A8F928
:100E70000023002806D0044B1868291C221CFFF709
:100E8000DBFA031C181C38BD1C020020F8B5051C39
:100E90000F1C0C48FFF794F90023002810D0002FF6
:100EA0000BD03C1C074E3068291C221CFFF7C4FAEB
:100EB000241A2D18002CF6D101E03B1C00E03B1C4D
:100EC000181CF8BD1C02002008B5C368081C111CC2
:100ED000984780221205034B5A616422024B1A8004
:100EE00008BDC0460044004192000020012806D100
:100EF000064A074B1A600122064B1A7004E00028CC
:100F000002D1054A024B1A607047C046EC1A000035
:100F10008C02002094000020441B0000F0B585B036
:100F2000021C8C46244B1B78002B33D0042901D1A2
:100F3000036836E06346022B01D1038831E0037871
:100F40006246560004AA90190B38002E2ED10DE0EF
:100F50003D1C1D40092D02D81543057001E03735B1
:100F600005701B0901380134B442F1D301AB3022C2
:100F70001A7078225A706246013252000A2199543E
:100F80009E190D21F1700D4908680232191CFFF7F6
:100F90009BFF0FE0094B1868111C6246FFF794FF96
:100FA00008E06246560004AA90190B3800240F2767
:100FB0003022CDE705B0F0BD880000208C02002073
:100FC00072B6EFF30883044A1360036883F308885A
:100FD000436818477047C04690020020104B1B889A
:100FE0009BB2002B0AD00E4A1388013B9BB21380A0
:100FF000002B03D1802212050A4B9A610A4B1B88F1
:101000009BB2002B0AD0084A1388013B9BB2138085
:10101000002B03D108219823024AD1507047C046C3
:10102000920000200044004190000020F0B55F468F
:1010300056464D464446F0B48DB004A9CE4A0B1C2A
:1010400031CA31C391CA91C3A0CAA0C3CB4A936825
:101050005B035B0F9B005B58C9490B60926892B2BF
:10106000C8490A605343C8490B60C84B00221A6044
:101070007A22C74B1A70C7488346C74C0134019483
:101080005D462B681B69C54840219847002806D05B
:1010900008219423C24AD1506422C24B1A80C24B09
:1010A0001860BE4AC14B1A600022C14B1A6000286A
:1010B000E6D0BE4C27683B78FF2B00D160E2232BA3
:1010C00000D02EE2BB4B1B78002B05D0B14B18682B
:1010D000B9490222FFF7F8FEAD4B1B78532B47D1DD
:1010E000B14B1B68B24A1268934221D9AF480168DC
:1010F000013101600132AE4802609A1AAF4B1868A4
:10110000824202D2AE4B1A6001E0AD4B18609F4B99
:101110001868AB4D2A6800F09BFC2B68A44A106845
:1011200019181160A14A1568E9181160A54A1370D1
:101130009F4B1A68013A1A609C4B1A68013A1A6070
:10114000A04B1B789D4A11688B420FD2914A1268BE
:101150008E480068C91A92699047002806D0082175
:1011600094238F4AD15064228E4B1A80C046C7E127
:10117000522B0FD1874B1B68844A10688F4A116825
:101180005B69984780221205854B5A6164228E4B19
:101190001A80B5E14F2B05D17C4B1B68874A12683A
:1011A0001A70ADE1482B05D1784B1B68834A126851
:1011B0001A80A5E1572B05D1744B1B687F4A126832
:1011C0001A609DE16F2B05D1704B18680121FFF764
:1011D000A5FE95E1682B08D178486C4B1B681B88ED
:1011E00003600221FFF79AFE8AE1772B08D1674B53
:1011F0001B681B68714803600421FFF78FFE7FE1C5
:10120000472B13D16D4B1868FFF7DAFE6F4B1B6845
:1012100083F3088862B66E4B1B78002B00D16FE118
:101220005C4B1B681B680620984769E1542B09D169
:101230000122604B1A70574B18685F490222FFF772
:1012400043FE5DE14E2B0DD15A4B1B78002B05D18F
:10125000504B186858490222FFF736FE0022554BC2
:101260001A704DE1562B58D14A4D28685949012230
:10127000FFF72AFE286858490322FFF725FE574E3C
:101280002868311C0122FFF71FFE286854490D22EF
:10129000FFF71AFE2868311C0122FFF715FE002215
:1012A000434B1A60414B019F1F603B4D2B78002B35
:1012B00000D173E13E493D4A0B6801330B6013686E
:1012C000581C10601B78002BF6D1324E384D306818
:1012D00031492A68FFF7F8FD306840490122FFF7DD
:1012E000F3FD00232B603F4A304B1A6067E10B6827
:1012F00001330B601368581C10601B78002BF6D16B
:10130000244D2B4B1A6828683749FFF7DDFD286804
:1013100029490222FFF7D8FDF2E0582B1FD1274BB5
:101320001868194B1B68984212D2144A2F4FBC46BA
:101330000121134E144D4308D36163461380137D7E
:101340001942FCD03768BB00C0182B689842F2D312
:10135000104B186826490322FFF7B6FDD0E0592B41
:1013600000D094E0154B1E68002E45D1074B1A683B
:10137000204B1A6084E0C046CC1A000000400041B7
:10138000440200203C020020380200208802002095
:10139000340200208C020020181B000048020020AC
:1013A00000440041900000202C0200203002002068
:1013B00040020020880000200C1B00009402002046
:1013C00098020020280200209200002090020020B5
:1013D00094000020101B0000081B0000141B0000DC
:1013E000601B0000251B0000241B000002A5FFFF5E
:1013F000301B00008C000020B608724B1D68724B39
:101400001F68724B5A6880218A435A60002E37D079
:10141000191C01206E4A92460023994690466D4A57
:101420000A800B7D1842FCD053461B68032B16D94B
:10143000002E16D04A464B460097B4462E1CB7588D
:10144000009DAF50013347463F68BD08AB420AD20A
:1014500004326345F3D1009F351C664606E04B46D7
:1014600004E04B4602E0009F351C66465A4A0A805B
:101470000A7D1042FCD09A00BF18AD18F61ACED1E2
:10148000564B186856490322FFF71EFD38E05A2BC9
:1014900036D14D4B1F68534B1B68002B0CD03D1CA5
:1014A000FF180026311C287800F04CF9011C01358A
:1014B000BD42F8D1061C00E00026484B18684A4996
:1014C0000122FFF701FD311C6B460F336E460736D4
:1014D0000F252A1C0A400909101C3030092A00DD9A
:1014E00007301870013BB342F3D13C4D286802A984
:1014F0000822FFF7E9FC28683C490322FFF7E4FCD7
:101500007A223B4B1A700022364B1A60394B1B78FB
:10151000002B35D0314B186837490122FFF7D4FC36
:101520002EE01A1C303A092A06D82E4A303B15689C
:1015300029010B43136023E01A1C413A052A06D8FF
:10154000284A373B176839010B43136018E01A1C0F
:10155000613A052A06D8234A573B106801010B431C
:1015600013600DE02C2B06D11E4B174A1968116031
:1015700000221A6004E01E4A13700022194B1A6000
:101580001E4A1368013313601D4A1168013111604E
:101590001C4A1268934200D28CE571E50F4E174D3C
:1015A000306819492A68FFF78FFC30681749012213
:1015B000FFF78AFC00232B60154A114B1A600F4974
:1015C0000F4A94E68C000020880200200040004171
:1015D0004402002044A5FFFF04A5FFFF8C02002069
:1015E000341B000094020020381B00003C1B00004C
:1015F0003402002088000020401B00004002002030
:10160000300200202C020020181B0000141B0000D8
:10161000251B000010B51E4B4A22995C0120014396
:1016200099543522995C0F24A14399549C5C022162
:10163000214399544B215C5C20435854985C0F2102
:1016400001409954985C202101439954114B196A27
:1016500004220A431A62104A104B5A801A1C53780B
:101660005BB2002BFBDB0E480E49C4229203FEF74F
:1016700055FD00230C4A13700C4A13700C4A13706A
:101680000C4A13700C4A13700C4A137010BDC046FC
:10169000004400410004004014400000000C0040E1
:1016A000000800422AF600009C02002026030020C9
:1016B0009D020020A0020020270300202403002018
:1016C00008B5C1B20248FEF75FFD012008BDC04663
:1016D00000080042024B187E4007C00F7047C0460A
:1016E0000008004208B5FFF7F5FF0028FBD00248CC
:1016F000FEF750FD08BDC0460008004208B5FFF7E0
:10170000E9FF0023002805D0FFF7ECFF031C233B73
:101710005A425341181C08BD70B5041C0E1E06D059
:1017200045182078FFF7CCFF0134AC42F9D1301CCA
:1017300070BDC04610B5041CFFF7D4FF2070012017
:1017400010BDC0460B0A584040000902024BC05A67
:10175000484080B27047C046701B0000F0B55F463D
:1017600056464D46E0B4061C8946002928D0002480
:10177000002718498A46184A9346FFF7B3FFC5B2B7
:1017800051460B78002B1DD1281C391CFFF7DAFFBE
:10179000071C5A461388002B03D1104B1B78002BD3
:1017A00009D0731C35701E1C4946802903D10A4993
:1017B0000A88013A0A800134A4B24C45DDD103E025
:1017C000002002E0012000E0381C1CBC91469A4633
:1017D000A346F0BD240300209E0200202503002024
:1017E000F0B55F4656464D464446F0B483B001908E
:1017F0008B4600224A4B1A70002903D10122494B23
:101800001A700CE0484B19800022464B1A705A4659
:10181000520604D05B4680337F2293439B46404D63
:101820002C1C0026FFF75EFF2B78002B0BD02670B8
:10183000FFF758FFC0B22378002B05D00022384BA9
:101840001A70002563E0C0B2432823D071285DD010
:101850001528E7D11EE00022314B1A7057E0FF2314
:101860001840062809D1009B0133DBB20093802386
:101870005B429B440199803101915A46002A10D164
:101880000420FFF71DFFFFF72DFF0022254B1A70E4
:1018900001253CE001230093234988468946214BDA
:1018A0009A460120FFF70CFF0098FFF709FF009907
:1018B000C843C0B2FFF704FF019E802500274246BF
:1018C0001388002B04D151460A780024002A04D042
:1018D0003478013B4A4613800136201CFFF7F0FEA6
:1018E000201C391CFFF72EFF071C013D002DE6D1FF
:1018F000000AC0B2FFF7E4FEF8B2FFF7E1FEFFF71F
:10190000F1FE074B1B78002BA9D0A4E70025281C6B
:1019100003B03CBC90469946A246AB46F0BDC046DB
:1019200024030020250300209E020020F0B5574626
:101930004E46C0B483B0061C0022414B1A700029E9
:1019400003D101223F4B1A7004E03F4B1980002263
:101950003C4B1A7064253D4F4320FFF7B1FE3C1C01
:1019600000E0013CFFF7B6FE002802D1002CF8D1C0
:1019700001E0002C03D1013D002DEDD159E00124FF
:101980002F4D2F1CFFF7AEFE2A78002A04D000222C
:101990002B4B1A7000254CE0FF230340012B02D093
:1019A000042B39D03BE001A80221FFF7D7FE301C01
:1019B0008021FFF7D3FE81463B78002B34D1FFF71F
:1019C00091FE000280B28246FFF78CFE504480B246
:1019D0001B4A1378012B27D0814509D101AB1B7815
:1019E000A34205D1E34301AA5278DBB29A4203D065
:1019F0001820FFF765FE17E00620FFF761FE104B89
:101A00001B78002B04D000220D4B1A70002510E02B
:101A1000631CDCB28036B5E70620FFF751FE0022DA
:101A2000084B1A70012504E0054B1B78002BF6D0FB
:101A3000E9E7281C03B00CBC91469A46F0BDC046AD
:101A400024030020250300209E02002000350C0006
:101A500010B50023934203D0CC5CC4540133F9E7A2
:101A600010BD031C8218934202D019700133FAE7AB
:101A700070470023C25C0133002AFBD1581E704717
:101A8000F8B5C046F8BC08BC9E467047F8B5C046DD
:101A9000F8BC08BC9E467047040309044172647593
:101AA000696E6F204C4C4300456D70797265616EB4
:101AB0002042657461000000120100020200004033
:101AC0000912EB730002010200010000080000008F
:101AD0001000000020000000400000008000000016
:101AE000000100000002000000040000C116000018
:101AF000E5160000D5160000191700003517000084
:101B0000E11700002D190000322E30000A0D0000F0
:101B100076000000200000004A616E203230203242
:101B20003031370031333A31313A32300000000081
:101B3000580A0D00590A0D005A000000230A0D0032
:101B40003E000000E50D0000050E0000250E00001F
:101B5000490E0000650E0000490E00008D0E0000C9
:101B60005B41726475696E6F3A58595A5D000000A6
:101B700000002110422063308440A550C660E77009
:101B8000088129914AA16BB18CC1ADD1CEE1EFF1B1
:101B90003112100273325222B5529442F772D66259
:101BA000399318837BB35AA3BDD39CC3FFF3DEE301
:101BB0006224433420040114E664C774A4448554A9
:101BC0006AA54BB528850995EEE5CFF5ACC58DD551
:101BD0005336722611163006D776F6669556B446F9
:101BE0005BB77AA719973887DFF7FEE79DD7BCC7A1
:101BF000C448E5588668A778400861180228233849
:101C0000CCC9EDD98EE9AFF9488969990AA92BB9F0
:101C1000F55AD44AB77A966A711A500A333A122A98
:101C2000FDDBDCCBBFFB9EEB799B588B3BBB1AAB40
:101C3000A66C877CE44CC55C222C033C600C411CE8
:101C4000AEED8FFDECCDCDDD2AAD0BBD688D499D90
:101C5000977EB66ED55EF44E133E322E511E700E38
:101C60009FFFBEEFDDDFFCCF1BBF3AAF599F788FE0
:101C70008891A981CAB1EBA10CD12DC14EF16FE1C0
:101C80008010A100C230E3200450254046706760F8
:101C9000B9839893FBA3DAB33DC31CD37FE35EF310
:101CA000B1029012F322D232354214527762567248
:101CB000EAB5CBA5A89589856EF54FE52CD50DC560
:101CC000E234C324A0148104667447642454054498
:101CD000DBA7FAB79987B8975FE77EF71DC73CD7B0
:101CE000D326F2369106B0165766767615463456E8
:101CF0004CD96DC90EF92FE9C899E9898AB9ABA900
:101D00004458654806782768C018E1088238A32837
:101D10007DCB5CDB3FEB1EFBF98BD89BBBAB9ABB4F
:101D2000754A545A376A167AF10AD01AB32A923A87
:101D30002EFD0FED6CDD4DCDAABD8BADE89DC98D9F
:101D4000267C076C645C454CA23C832CE01CC10CD7
:101D50001FEF3EFF5DCF7CDF9BAFBABFD98FF89FEF
:101D6000176E367E554E745E932EB23ED10EF01E27
:041D7000000000006F
:101D7400011400000902430002010080320904003A
:101D840000010202000005240010010424020005E1
:101D9400240600010524010001070583030800FF50
:101DA40009040100020A0000000705810240000046
:101DB400070502024000000000C201000000080004
:0C1DC40069000000410000000000000069
:04000003000006E90A
:00000001FF
